:020000040800F2
:1000000000000220890100081D02000825020008E6
:100010002D020008350200083D0200080000000023
:100020000000000000000000000000004502000881
:100030004D02000800000000550200085D020008A3
:100040001502000815020008150200081502000834
:100050001502000815020008150200081502000824
:100060001502000815020008150200081502000814
:100070001502000815020008150200081502000804
:1000800015020008150200081502000815020008F4
:1000900015020008150200081502000815020008E4
:1000A00015020008150200081502000815020008D4
:1000B00015020008150200081502000815020008C4
:1000C00015020008150200081502000815020008B4
:1000D0001502000815020008790900081502000839
:1000E0001502000815020008150200081502000894
:1000F0001502000815020008150200081502000884
:100100001502000815020008150200081502000873
:100110001502000815020008150200081502000863
:100120001502000815020008150200081502000853
:100130001502000815020008150200081502000843
:100140001502000815020008150200081502000833
:100150001502000815020008150200081502000823
:100160001502000815020008150200081502000813
:100170001502000815020008150200081502000803
:10018000150200081502000880B584B000AF0D4BC1
:10019000BB600D4B7B60BB683B6004E03B681A1D95
:1001A0003A6000221A607A683B689A42F6D801F0F9
:1001B0001BFA00F0B5FBF86001F04CFAF86801F0AA
:1001C00067FA00BF100000201000002080B584B046
:1001D00000AF0D4BFB600D4BBB600D4B7B60BB68F4
:1001E0003B6007E03B681A1D3A60FA68111DF96030
:1001F00012681A607A683B689A42F3D801F04EFAA6
:100200001037BD4680BD00BF141800080000002054
:100210001000002080B400AFFEE700BF80B400AF44
:10022000FEE700BF80B400AFFEE700BF80B400AFC0
:10023000FEE700BF80B400AFFEE700BF80B400AFB0
:10024000FEE700BF80B400AFFEE700BF80B400AFA0
:10025000FEE700BF80B400AFFEE700BF80B400AF90
:04026000FEE700BFF6
:04026400CD010008C0
:1002680080B592B000AFF860B96011461A460B46E7
:10027800FB8013467B71F86800F0CCFCF86801211C
:1002880000F062FEF868002100F05EFEFB68734A29
:1002980093421CD14FF400137B6402233B644FF458
:1002A8000073FB874FF48073BB876D4B7B63092317
:1002B80087F83B30082387F83A30042387F833302F
:1002C8001F2387F83230202387F831303EE0FB685F
:1002D800644A93421CD14FF480037B6402233B643D
:1002E8004FF40063FB874FF48063BB875C4B7B63F1
:1002F8000B2387F83B300A2387F83A30042387F822
:100308003330212387F83230222387F831301DE03B
:10031800FB68554A934219D14FF400037B6480234C
:100328003B642023FB871023BB87504B7B6305234B
:1003380087F83B30042387F83A30042387F83330B2
:10034800482387F83230492387F83130786C012107
:1003580000F068FF386C012100F046FF022387F89F
:100368002C30022387F82D30012387F82F30012302
:1003780087F82E30BA8FFB8F13439BB2BB6207F10D
:100388002803786B194600F06FFB97F83A309AB259
:1003980097F83330324811461A4600F0F3FB97F8C5
:1003A8003B309AB297F833302D4811461A4600F080
:1003B800E9FBF868012100F0A7FD7B79012B2DD11D
:1003C80097F832303B750F237B750F23BB750123DC
:1003D800FB7507F11403184600F0E6FA97F8313078
:1003E8003B740F237B740F23BB740123FB7407F149
:1003F8001003184600F0D8FAF8684FF4007101228B
:1004080000F0F4FDF8684FF48071012200F0EEFD71
:10041800F8684FF48061012200F0E8FDBB68BB6119
:100428000023BB834BF6FF73FB83FB883B844FF4AD
:1004380080637B844FF48043BB8407F11803F8681A
:10044800194600F021FCF868012100F09FFDF868CA
:10045800012100F0DBFC4837BD4680BD0054004058
:100468000004024000580040005C0040001C0240AC
:1004780080B500AF2148224900220023FFF7F0FE93
:10048800204800F067F90320002100F0D3F841F27A
:10049800883000F05FF90320002100F0CBF841F22A
:1004A800883000F057F90320002100F0C3F86420D9
:1004B80000F050F90220002100F0BCF8642000F0A0
:1004C80049F9282000F0A6F801200121012200F0B6
:1004D80033F80120002100F057F80B4800F03AF9F2
:1004E80000F016F8094800F06FF8074800F032F9F4
:1004F80000F00EF800F016F880BD00BF0054004070
:10050800A0860100801A060080841E00E8170008F3
:1005180080B500AF012000F07DF840F6C41000F06F
:1005280019F980BD80B500AF022000F073F840F6DD
:10053800C41000F00FF980BD80B584B000AF034649
:10054800FB710B46BB7113467B710823FB73FB7968
:10055800012B03D1FB7B43F00403FB73BB79012B15
:1005680003D1FB7B43F00203FB737B79012B03D19F
:10057800FB7B43F00103FB73FB7B1846002100F073
:1005880059F81037BD4680BD80B584B000AF03462A
:100598000A46FB711346BB710423FB73FB79012BDD
:1005A80003D1FB7B43F00203FB73BB79012B03D11F
:1005B800FB7B43F00103FB73FB7B184600F02AF832
:1005C8001037BD4680BD00BF80B584B000AF7860ED
:1005D8000023FB730023BB730BE07B685A1C7A6013
:1005E8001B78DBB21846012100F024F8FB7B0133AD
:1005F800FB737B681B78002B02D0FB7B502BECD95C
:10060800FB7B502B01D80123BB73BB7B18461037EB
:10061800BD4680BD80B582B000AF0346FB71FB7953
:100628001846002100F006F8322000F093F8083749
:10063800BD4680BD80B582B000AF03460A46FB7157
:100648001346BB71FB791B09DAB2BB791046194610
:1006580000F00CF8FB7903F00F03DAB2BB7910460F
:10066800194600F003F80837BD4680BD80B584B050
:1006780000AF03460A46FB711346BB71FB791B01A9
:10068800FB73BB79012B03D1FB7B43F00103FB73A5
:10069800FB7B43F00803FB73FB7B184600F004F870
:1006A8001037BD4680BD00BF80B582B000AF03469D
:1006B800FB71FB7943F00403DBB2184600F00EF837
:1006C800012000F047F8FB7923F00403DBB2184659
:1006D80000F004F80837BD4680BD00BF80B584B07F
:1006E80000AF0346FB71FB79FB731648012100F04C
:1006F800ADFB00BF1348144900F09CFC0346002BD7
:10070800F8D010484E21002200F0E0FB00BF0D4851
:100718000E4900F08FFC0346002BF8D0FB7B0948FC
:10072800194600F053FC00BF0648094900F082FC56
:100738000346002BF8D00348012100F0A7FB10372F
:10074800BD4680BD00540040010003008200070040
:100758008400070080B485B000AF786007E01923F3
:10076800FB7300BFFB7B5A1EFA73002BFAD17B6820
:100778005A1E7A60002BF2D11437BD465DF8047B0F
:10078800704700BF80B58CB000AFF860B960134601
:10079800FB71FB68424A934223D10120012100F0FA
:1007A80023FD02233B770023BB774FF4C063BB6173
:1007B8000023FB7702237B7707F118033948194692
:1007C80000F052F937480921072200F0DBF93548D3
:1007D8000A21072200F0D6F91020012100F040FD7F
:1007E80026E0FB68304A934222D10120012100F023
:1007F800FBFC02233B770023BB770C23BB61002360
:10080800FB7702237B7707F118032648194600F087
:100818002BF924480221072200F0B4F921480321CA
:10082800072200F0AFF94FF40030012100F0FAFC84
:10083800BB683B620023BB850C237B8500233B857B
:100848000023FB840023BB84FB79012B17D1F868B4
:1008580040F22551012200F05FFEF86828210122AC
:1008680000F05AFE26233B750123FB750F237B7589
:100878000F23BB7507F11403184600F095F8F868C4
:10088800012100F005FE07F12003F868194600F081
:1008980023FDF868012100F0DBFD3037BD4680BD3F
:1008A80000100140000002400044004080B582B0C2
:1008B80000AF78600B467B8000BF7868802100F02D
:1008C80073FE0346002BF8D07B887868194600F041
:1008D80001FE00BF7868402100F066FE0346002B49
:1008E800F8D00837BD4680BD80B582B000AF7860CB
:1008F800396009E03B685A1C3A601B785BB29BB2CE
:1009080078681946FFF7D2FF3B681B78002BF1D1B6
:100918000837BD4680BD00BF80B500AF00F004F8C1
:1009280000F020F8FCE700BF80B582B000AF0A4BAA
:100938007B60FFF79DFD09484FF416510122FFF730
:1009480021FF06487968FFF7CFFF04480449FFF7FD
:10095800CBFF0837BD4680BDF817000800440040AB
:100968000818000880B400AFBD465DF8047B7047E6
:1009780080B582B000AF0B4800F0BEFD0346BB80D7
:10098800BB88FB71FB790D2B04D1BB8823F0FF03D7
:100998009BB2BB803B1D1846FFF716FE0837BD46C5
:1009A80080BD00BF0044004080B485B000AF7860CF
:1009B8000023FB730023BB730F237B737B68DB78F7
:1009C800002B38D0264BDB68DB4303F4E0631B0ABB
:1009D800FB73FB7BC3F10403BB737A7BFB7B42FA9B
:1009E80003F37B737B685B781A46BB7B02FA03F3DD
:1009F800FB737B689A787B7B1340DAB2FB7B1343EB
:100A0800FB73FB7B1B01FB73164A7B681B78134443
:100A1800FA7B83F80023134A7B681B785B09DBB2F7
:100A280018467B681B7803F01F03012101FA03F3C2
:100A380042F820300FE00B497B681B785B09DBB27A
:100A480018467B681B7803F01F0301229A4000F1C7
:100A5800200341F823201437BD465DF8047B704716
:100A680000ED00E000E100E080B487B000AF7860FE
:100A7800396000237B6100233B610023FB60002376
:100A88007B6176E07B69012202FA03F33B613B68F4
:100A98001A683B691340FB60FA683B699A4265D162
:100AA8007B681A687B695B00194603238B40DB432C
:100AB8001A407B681A607B681A683B681B7919467C
:100AC8007B695B0001FA03F31A437B681A603B6891
:100AD8001B79012B03D03B681B79022B2ED17B6835
:100AE8009A687B695B00194603238B40DB431A40F5
:100AF8007B689A607B689A683B685B7919467B6972
:100B08005B0001FA03F31A437B689A607B685A68B2
:100B18007B699BB2194601238B40DB431A407B68F3
:100B28005A607B685B683A68927911467A6992B232
:100B380001FA02F292B21A437B685A607B68DA685B
:100B48007B699BB25B00032101FA03F3DB431A4084
:100B58007B68DA607B68DA683B68DB7919467B6911
:100B68005B0001FA03F31A437B68DA607B6901339F
:100B78007B617B690F2B85D91C37BD465DF8047BEB
:100B8800704700BF80B485B000AF78600B467B80AB
:100B980013467B700023FB600023BB607B787A8858
:100BA80002F0070292009340FB607B88DB089BB24F
:100BB80018467B88DB089BB21A467B68083253F8D4
:100BC80022207B8803F007039B0019460F238B40E4
:100BD800DB4302EA03017B6800F1080243F82210B4
:100BE8007B88DB089BB21A467B68083253F82220C0
:100BF800FB681343BB607B88DB089BB21A467B68A3
:100C08000832B96843F822101437BD465DF8047BF2
:100C1800704700BF80B582B000AF78607B68174A24
:100C280093420AD14FF40010012100F037FB4FF432
:100C38000010002100F032FB1CE07B68104A934250
:100C48000AD14FF48000012100F028FB4FF4800006
:100C5800002100F023FB0DE07B680A4A934209D18A
:100C68004FF40000012100F019FB4FF400000021AF
:100C780000F014FB0837BD4680BD00BF005400409B
:100C880000580040005C004080B58AB000AF786032
:100C980039600023FB8400237B840423BB84574BE7
:100CA800FB617B689B88FB84FB8C23F03F03FB8400
:100CB80007F10C03184600F0EDF97B69FB61FB694D
:100CC8004F4AA2FB03239B0C7B84FA8C7B8C134337
:100CD800FB847B68FA8C9A807B681B889BB223F024
:100CE80001039AB27B681A800023FB843B681B6867
:100CF800444A934215D83B681B685B00FA69B2FB0B
:100D0800F3F3BB84BB8C032B01D80423BB84FA8C7C
:100D1800BB8C1343FB847B8C01339AB27B681A84A7
:100D280040E03B68DB884BF6FF72934209D13B6891
:100D38001A6813465B001344FA69B2FBF3F3BB84E9
:100D48000EE03B681A6813469B0013449A0013444C
:100D5800FA69B2FBF3F3BB84BB8C43F48043BB84D6
:100D6800BB8CC3F30B03002B03D1BB8C43F00103F3
:100D7800BB84BA8CFB8C13439BB26FEA43436FEA84
:100D88005343FB847B8C4FF4967202FB03F31E4A99
:100D980082FB03129211DB17D31A9BB201339AB26A
:100DA8007B681A847B68FA8C9A837B681B889BB261
:100DB80043F001039AB27B681A807B681B88FB8426
:100DC800FB8C23F4816323F00203FB843B689A883D
:100DD8003B685B8913439AB2FB8C1343FB847B68A3
:100DE800FA8C1A803B689A893B681B8913439AB22C
:100DF8007B681A812837BD4680BD00BF00127A0083
:100E080083DE1B43A0860100D34D621080B483B0FB
:100E180000AF78600B46FB70FB78002B08D07B682E
:100E28001B889BB243F001039AB27B681A8007E0E3
:100E38007B681B889BB223F001039AB27B681A80F7
:100E48000C37BD465DF8047B704700BF80B483B0A3
:100E580000AF78600B46FB70FB78002B08D07B68EE
:100E68001B889BB243F480739AB27B681A8007E0B0
:100E78007B681B889BB223F480739AB27B681A80C4
:100E88000C37BD465DF8047B704700BF80B483B063
:100E980000AF78600B46FB70FB78002B08D07B68AE
:100EA8001B889BB243F400739AB27B681A8007E0F0
:100EB8007B681B889BB223F400739AB27B681A8004
:100EC8000C37BD465DF8047B704700BF80B483B023
:100ED80000AF78600B46FB701346BB70BB78002BE5
:100EE80004D0FB7843F00103FB7003E0FB7823F0A8
:100EF8000103FB70FB789AB27B681A820C37BD46F7
:100F08005DF8047B704700BF80B483B000AF7860A1
:100F18000B46FB70FB78002B08D07B681B889BB2C4
:100F280043F480639AB27B681A8007E07B681B8869
:100F38009BB223F480639AB27B681A800C37BD4653
:100F48005DF8047B704700BF80B483B000AF786061
:100F58000B46FB70FB78002B0AD07B681B889BB282
:100F68006FEA43436FEA53439AB27B681A8007E0FB
:100F78007B681B889BB2C3F30E039AB27B681A8006
:100F88000C37BD465DF8047B704700BF80B483B062
:100F980000AF78600B46FB70FB78002B08D17B68AC
:100FA8001B889BB243F080039AB27B681A8007E0E3
:100FB8007B681B889BB223F080039AB27B681A80F7
:100FC8000C37BD465DF8047B704700BF80B483B022
:100FD80000AF78600B46FB70FB789AB27B681A8288
:100FE8000C37BD465DF8047B704700BF80B483B002
:100FF80000AF78600B467B8013467B707B78002BB4
:1010080008D07B689B889AB27B8813439AB27B6826
:101018009A8009E07B689B889AB27B88DB439BB205
:1010280013409AB27B689A800C37BD465DF8047B02
:10103800704700BF80B487B000AF78603960002384
:101048003B610023FB600023BB600023FB757B68CA
:101058009B8A9BB2FB607B681B8B9BB2BB60BB68A7
:101068001B04BB60FA68BB68134323F07F433B61F2
:101078003A693B681A403B689A4202D10123FB75E2
:1010880001E00023FB75FB7D18461C37BD465DF863
:10109800047B704780B489B000AF78600023BB61DF
:1010A80000237B610023FB6102233B610023FB607B
:1010B8000223BB60484B9B6803F00C03BB61BB6910
:1010C800042B07D0082B09D0002B3FD17B68434A5B
:1010D8001A603FE07B68424A1A603BE03E4B5B681F
:1010E80003F480039B0DFB603B4B5B6803F03F03FD
:1010F800BB60FB68002B0DD0394ABB68B2FBF3F22A
:10110800354B596847F6C0730B409B0903FB02F344
:10111800FB610CE0314ABB68B2FBF3F22E4B596815
:1011280047F6C0730B409B0903FB02F3FB612A4B94
:101138005B6803F440331B0C01335B003B61FA69C5
:101148003B69B2FBF3F27B681A6003E07B68234AD1
:101158001A6000BF204B9B6803F0F003BB61BB69BA
:101168001B09BB611F4ABB6913441B78DBB27B6157
:101178007B681A687B69DA407B685A60164B9B6803
:1011880003F4E053BB61BB699B0ABB61154ABB69A9
:1011980013441B78DBB27B617B685A687B69DA4051
:1011A8007B689A600C4B9B6803F46043BB61BB6926
:1011B8005B0BBB610B4ABB6913441B78DBB27B61D9
:1011C8007B685A687B69DA407B68DA602437BD46F9
:1011D8005DF8047B704700BF003802400024F4002B
:1011E80000127A000000002080B483B000AF78605D
:1011F8000B46FB70FB78002B06D00949084B1A6B8D
:101208007B6813430B6306E00549054B1A6B7B6843
:10121800DB4313400B630C37BD465DF8047B704716
:101228000038024080B483B000AF78600B46FB7092
:10123800FB78002B06D00949084B1A6C7B681343CE
:101248000B6406E00549054B1A6C7B68DB431340C9
:101258000B640C37BD465DF8047B704700380240CC
:1012680080B483B000AF78600B46FB70FB78002B2E
:1012780006D00949084B5A6C7B6813434B6406E057
:101288000549054B5A6C7B68DB4313404B640C37AC
:10129800BD465DF8047B70470038024080B483B0D7
:1012A80000AF78600B46FB70FB78002B06D009492D
:1012B800084B1A6A7B6813430B6206E00549054B25
:1012C8001A6A7B68DB4313400B620C37BD465DF836
:1012D800047B70470038024080B58AB000AF786060
:1012E800396000237B6200233B620023FB610023FB
:1012F800BB617B681B8A9BB27B627B6A23F4405389
:101308007B623B68DB881A467B6A13437B627B6A95
:101318009AB27B681A827B689B899BB27B627B6AE4
:1013280023F4B05323F00C037B623B689A883B6834
:101338001B8913439AB23B685B8913439BB21A46D5
:101348007B6A13437B627B6A9AB27B689A817B686B
:101358009B8A9BB27B627B6A23F440737B623B6807
:101368009B891A467B6A13437B627B6A9AB27B68C5
:101378009A8207F108031846FFF78CFE7B68314A0A
:10138800934203D07B68304A934202D17B693B6227
:1013980001E03B693B627B689B899BB29BB21BB2B5
:1013A800002B0CDA3A6A13469B0013449A001A443D
:1013B8003B681B685B00B2FBF3F3FB610BE03A6A26
:1013C80013469B0013449A001A443B681B689B0011
:1013D800B2FBF3F3FB61FB691C4AA2FB03235B0925
:1013E8001B017B627B6A1B09642202FB03F3FA6917
:1013F800D31ABB617B689B899BB29BB21BB2002B43
:101408000CDABB69DB003233104AA2FB03235B0909
:1014180003F007037A6A13437B620BE0BB691B0185
:1014280032330A4AA2FB03235B0903F00F037A6AEB
:1014380013437B627B6A9AB27B681A812837BD4660
:1014480080BD00BF00100140001401401F85EB5112
:1014580080B483B000AF78600B46FB70FB78002B3C
:1014680008D07B689B899BB243F400539AB27B688F
:101478009A8107E07B689B899BB223F400539AB258
:101488007B689A810C37BD465DF8047B704700BFC6
:1014980080B483B000AF78600B46FB70FB78002BFC
:1014A8000AD07B689B899BB26FEA43436FEA534338
:1014B8009AB27B689A8107E07B689B899BB2C3F3E9
:1014C8000E039AB27B689A810C37BD465DF8047B9F
:1014D800704700BF80B483B000AF78600B467B8054
:1014E8007B88C3F308039AB27B689A800C37BD46A1
:1014F8005DF8047B704700BF80B483B000AF7860AC
:101508007B689B889BB2C3F308039BB218460C37D1
:10151800BD465DF8047B704780B487B000AF786043
:101528000B467B8013467B7000233B610023FB60E6
:101538000023BB6000237B617B687B617B88DBB217
:101548005B09DBB23B617B8803F01F03FB60FB6830
:10155800012202FA03F3BB603B69012B03D17B69CB
:101568000C337B6109E03B69022B03D17B691033A3
:101578007B6102E07B6914337B617B78002B06D0AA
:101588007B697A691168BA680A431A6006E07B6960
:101598007A691168BA68D2430A401A601C37BD4696
:1015A8005DF8047B704700BF80B485B000AF7860F9
:1015B8000B467B800023FB737B681B889AB27B8871
:1015C80013409BB2002B02D00123FB7301E00023E0
:1015D800FB73FB7B18461437BD465DF8047B7047E8
:1015E80080B582B000AF154A154BD31A9B103B60EB
:1015F80000237B6007E0124A7B6852F82330984743
:101608007B6801337B607A683B689A42F3D30D4A62
:101618000D4BD31A9B103B6000237B6007E00A4AFE
:101628007B6852F8233098477B6801337B607A687F
:101638003B689A42F3D30837BD4680BD680200086C
:1016480064020008680200086802000880B582B0D9
:1016580000AF0B4A0B4BD31A9B103B603B687B6077
:1016680008E07B68013B074A52F8233098477B68BB
:10167800013B7B607B68002BF3D10837BD4680BDFA
:10168800680200086802000880B483B000AF786080
:10169800FEE700BF80B500AF114A114B1B6843F04D
:1016A800010313600E4B00229A600D4A0C4B1B6815
:1016B80023F0847323F480331360094B094A5A607A
:1016C800074A074B1B6823F480231360044B00224E
:1016D800DA6000F00BF8044B4FF000629A6080BDAE
:1016E800003802401030002400ED00E080B483B0E0
:1016F80000AF00237B6000233B60354A344B1B68F6
:1017080043F480331360324B1B6803F400333B60AF
:101718007B6801337B603B68002B03D17B68B3F5A2
:10172800A04FF0D12A4B1B6803F40033002B02D0E2
:1017380001233B6001E000233B603B68012B42D161
:10174800234A234B1B6C43F080531364214A214BDB
:101758001B6843F4404313601D4A1D4B9B6893600C
:101768001B4A1B4B9B6843F400439360184A184B71
:101778009B6843F4A0539360154B174A5A60144A68
:10178800134B1B6843F08073136000BF104B1B683A
:1017980003F00073002BF9D0104B40F205721A6069
:1017A8000B4A0B4B9B6823F003039360084A084BD2
:1017B8009B6843F00203936000BF054B9B6803F0EE
:1017C8000C03082BF9D10C37BD465DF8047B704734
:1017D800003802400070004008544007003C0240B6
:1017E80048454C4C4F2042554444592121000000A3
:1017F800534554555020444F4E45210A00000000DF
:0C180800496E7075743A200A0000000060
:101814000000000001020304010203040607080992
:040000050800018965
:00000001FF
